:10000000A2C100000C944F250C947C25C4C10000B3
:10001000C2C10000C0C10000BEC100000C94F424A5
:10002000BAC100000C948E190C94B219B4C100002E
:10003000B2C100000C949B19AEC10000ACC100001D
:100040000C94AF25A8C100000C942122A4C100008B
:10005000A2C10000A0C100009EC100009CC1000020
:100060000C94AD1E98C10000503A202D3F3F2E3F0A
:10007000202D2D2D2D2020200020313233343536F7
:100080003738393F4352555748003F3A202D2D2DE0
:100090002D2D2D2D2D2D2D2D2D2D00233A202B3FB7
:1000A0003F2E3F203F3F252020202100523A202D87
:1000B0002D2D2D2D2D202D2D2E2D2D2100553A208D
:1000C0002D2D202020202020202020202100573AE4
:1000D000202D2D2D202D2D2D202D2D2D2021004E9C
:1000E0002020004E4E45004E452000454E4500451F
:1000F00020200045534500534520005353450053ED
:100100002020005353570053572000575357005790
:10011000202000574E57004E5720004E574E0020CB
:100120006768696A6B6C6D6E6F61626364656600B7
:100130005365742D436F6F6B69653A2000436F6F91
:100140006B69653A2000266E657773657373696F16
:100150006E310026696E6465783D003F69643D320A
:10016000266C6173743D3100504F53540048545411
:10017000502F312E3100485454502F312E3120321F
:100180003030204F4B003A204E6F20726573706FF5
:100190006E736500436F6E74656E742D4C656E678B
:1001A00074683A2000436F6E6E656374696F6E3ACF
:1001B00020636C6F736500486F73743A20002048A9
:1001C0005454502F312E31003A204661696C6564D9
:1001D00020746F20636F6E6E6563740020627974A3
:1001E0006573007B573A45746865726E657420725A
:1001F000657365747D00505554006170692E70619F
:1002000063687562652E636F6D002F76322F6665A9
:100210006564732F31333136342E63737600582D75
:10022000506163687562654170694B65793A203148
:100230003132396164623138353366613765623332
:1002400034643434353434373937613662303233DC
:100250003434323839393339613461363362356494
:1002600063353436343032653365613935353400C1
:10027000617070732E7673656764612E6F726700AC
:100280002F646174612E637376002F6D65737361E3
:1002900067652E6373760041757468656E74696373
:1002A0006174653A20626173696320646E4E6B59B4
:1002B000574E6F595470364E3364715A3256705AD5
:1002C000773D3D007B573A576561746865724365B9
:1002D0006E7472616C20737461727465647D000267
:1002E00000000000240027002A0000000000250074
:1002F00028002B0000000000230026002900040431
:1003000004040404040402020202020203030303BD
:100310000303010204081020408001020408102099
:100320000102040810200000000700020100000381
:1003300004060000000000000000CC01E0050611EA
:10034000EF174219182311241FBECFEFD8E0DEBFEC
:10035000CDBF11E0A0E0B1E0EAEEFFE402C00590FD
:100360000D92A63AB107D9F717E0A6EAB1E001C0AD
:100370001D92A13AB107E1F713E0C6E4D3E004C04F
:100380002297FE010E94A027CA33D107C9F70E9415
:10039000A9250C94F32734CE80EC91E048ED56ED7E
:1003A00060E070E00C948717AF92BF92CF92DF921B
:1003B000EF92FF920F931F9387E296E067E770E05A
:1003C0000E94211987E296E064EF70E00E946619AE
:1003D00087E296E064E370E00E94661987E296E0A7
:1003E0000E94681965E070E080E090E00E942B2692
:1003F00087E296E067E770E00E94211987E296E0C5
:1004000066EF70E00E94661987E296E00E94681924
:1004100087E296E067E770E043E050E00E948319CE
:1004200087E296E00E942B198330D0F387E296E0B2
:100430000E943119E82E87E296E00E943119A82E19
:1004400087E296E00E943119FF2400E010E0870166
:10045000FF24EE24BB24CC24DD24DC2CCB2CBA2CB2
:10046000AA24EA28FB280C291D29EF2CF02E012FA5
:100470001127B701C8011F910F91FF90EF90DF90F6
:10048000CF90BF90AF9008951F93182F87E296E00A
:1004900067E770E00E94211987E296E0612F0E94D1
:1004A000431987E296E00E94681987E296E067E7C1
:1004B00070E042E050E00E94831987E296E00E94DB
:1004C0002B198230D0F387E296E00E943119182F61
:1004D00087E296E00E943119512F40E0282F30E04A
:1004E000242B352BC9011F9108958AEACDDF909303
:1004F000A7018093A6018CEAC7DF9093A90180939E
:10050000A8018EEAC1DF9093AB018093AA0180EB32
:10051000BBDF9093AD018093AC0182EBB5DF90938C
:10052000AF018093AE0184EBAFDF9093B101809374
:10053000B00186EBA9DF9093B3018093B20188EB01
:10054000A3DF9093B5018093B4018AEB9DDF909374
:10055000B7018093B6018CEB97DF9093B90180933C
:10056000B8018EEB91DF9093BB018093BA0108959F
:1005700087E296E00E948519B8CF0F931F9307E298
:1005800016E0C80167E770E00E942119C80164EF16
:1005900070E00E946619C8016EE270E00E94661960
:1005A000C8010E94681965E070E080E090E00E9458
:1005B0002B2686EF69DF1F910F9108952F923F92AE
:1005C0004F925F926F927F928F929F92AF92BF9263
:1005D000CF92DF92EF92FF920F931F93DF93CF930F
:1005E00000D000D000D0CDB7DEB780EC91E00E9403
:1005F0009917882309F4A3C1C0DFA0E0B0E02091DF
:10060000B0013091B10140E050E0821B930BA40B8C
:10061000B50B2091AE013091AF0140E050E0BC013C
:10062000CD010E941B277B018C01FFE015950795EA
:10063000F794E794FA95D1F76091B8017091B901F8
:10064000882777FD8095982FEBE0660F771F881F2E
:10065000991FEA95D1F72091BA013091BB01442747
:1006600037FD4095542F2E0D3F1D401F511F0E94F6
:100670006F272E0D3F1D401F511F2093BC0130934B
:10068000BD014093BE015093BF01285F3F4F4F4FC4
:100690005F4F74E055954795379527957A95D1F733
:1006A0003E832D8381DE3B014C01A090BC01B090C4
:1006B000BD01C090BE01D090BF0180E690EFAFEFCA
:1006C000BFEFA80EB91ECA1EDB1EC601B501A601EA
:1006D00095010E941B271B012C016091AA017091BA
:1006E000AB01882777FD8095982F0E941B277B01FF
:1006F0008C016DE015950795F794E7946A95D1F70D
:1007000082E090E0A0E0B0E0E80EF91E0A1F1B1F97
:10071000C201B1015CE095958795779567955A95EB
:10072000D1F72091B2013091B301442737FD4095B4
:10073000542F0E941B27BC01992777FD9095892F84
:10074000E60EF71E081F191F32E015950795F7945E
:10075000E7943A95D1F780E090E8A0E0B0E0E80EA9
:10076000F91E0A1F1B1F2091AC013091AD0140E022
:1007700050E0C801B7010E941B27DC01CB012FE02C
:10078000B695A795979587952A95D1F789839A83EA
:10079000AB83BC83E090A601F090A7010027F7FC93
:1007A0000095102F82E0EE0CFF1C001F111F8A9590
:1007B000D1F782E090E0A0E0B0E0E80EF91E0A1F59
:1007C0001B1F6091A8017091A901882777FD809572
:1007D000982FA60195010E941B27BBE09595879550
:1007E00077956795BA95D1F7E60EF71E081F191F82
:1007F0002091B4013091B501442737FD4095542F25
:10080000C201B1010E941B27A7E1959587957795B5
:100810006795AA95D1F7E60EF71E081F191FF2E09B
:1008200015950795F794E794FA95D1F76E187F0818
:10083000800A910AC401B30120E533EC40E050E0A6
:100840000E941B2797FD0FC0660F771F881F991FF7
:1008500029813A814B815C810E944D27C901DA01CF
:100860005C016D010CC029813A814B815C810E9441
:100870004D2759016A01AA0CBB1CCC1CDD1C552755
:10088000D7FC5A954D2D3C2D2B2DCA01B9010E9444
:100890001B272EED3BE040E050E00E941B277B0130
:1008A0008C01C601B50123E433EE4FEF5FEF0E94E8
:1008B0001B27BC01992777FD9095892F6153714FB4
:1008C0008F4F9F4F78011127F7FC1095012F6E0D68
:1008D0007F1D801F911F34E09595879577956795CB
:1008E0003A95D1F76A0D7B1D8C1D9D1D24E630E0E5
:1008F00040E050E00E946F2779018A018CE16D8110
:100900007E8141E067D78DE1B70140E063D784EE97
:1009100091E068E670E00E94B6278D819E8167EEC7
:1009200071E045E021E20E946411C7016DEE71E0C3
:1009300044E020E20E94641184EE91E07FD126968B
:100940000FB6F894DEBF0FBECDBFCF91DF911F91E0
:100950000F91FF90EF90DF90CF90BF90AF909F905E
:100960008F907F906F905F904F903F902F90089561
:100970001092CB018FE091E061C1282F982F935402
:100980009093CC0181568A3110F4983208F0F0CF60
:100990009091CA01E92FF0E0E15FFE4F808188234A
:1009A00021F020839F5F9093CA0184E08093CB0164
:1009B0001092CE011092CD011092CF0181E0809370
:1009C000D00108951F93182F4091CB01433009F4B3
:1009D000A9C0443028F4413091F04230A0F40AC05C
:1009E000473020F4453008F041C025C0473009F0B9
:1009F0009DC04DC0813209F099C081E078C0833438
:100A0000B9F482E074C08D3399F483E08093CB0114
:100A100092E020E202C020839F5FE92FF0E0E15FD7
:100A2000FE4F80818823B9F782E08093CA017EC09F
:100A30001092CB017BC08B3211F08D32B9F49091C2
:100A4000CA01E92FF0E0E15FFE4F8081882321F0A9
:100A500010839F5F9093CA0185E08093CB011D3284
:100A600009F064C08FEF8093D00160C01E3279F42A
:100A70009091CA01E92FF0E0E15FFE4F8081882369
:100A800021F010839F5F9093CA0187E030C0812FCF
:100A900080538A3078F59091CA01E92FF0E0E15F48
:100AA000FE4F8081882321F010839F5F9093CA01BD
:100AB0008091CD019091CE019C0163E0220F331F04
:100AC0006A95E1F7880F991F280F391F205330408E
:100AD000210F311D3093CE012093CD01473031F4E9
:100AE0008091CF018F5F8093CF0120C086E08093FB
:100AF000CB011CC046504230C0F48091D0019927F0
:100B000087FD90952091CD013091CE01829FB0015B
:100B1000839F700D929F700D11248091CC014091A4
:100B2000CF0158D6812F29DF01C022DF1F91089500
:100B30001F93182F8D3039F08A3029F0882319F04F
:100B400090E08C3209F491E08091C901882319F07A
:100B5000813011F511C0992321F080E692E051D146
:100B60001BC01A3221F481E08093C90115C080E6D0
:100B700092E0612FAFD110C0992321F080E692E07E
:100B8000C7D108C080E692E06AE2A4D180E692E094
:100B9000612FA0D11092C9011F9108951F9308C021
:100BA0008AE797E00E94D522182FC2DF812F0ADF43
:100BB0008AE797E00E94AA22892B91F71F91089556
:100BC000CF92EF920F9381ED91E067E049E022E050
:100BD00003E055E0E52E36E0C32E0E942D1785E494
:100BE00092E048EE53E060E070E021E00E9474176C
:100BF0000F91EF90CF90089585E492E00E949917AD
:100C00008823D9F080914E028F5F80934E0282300C
:100C100011F410924E0281ED91E060E041E00E94FB
:100C20004F16E0914E02F0E0E05EFE4F81ED91E064
:100C3000608140E050E00C9477240895AF92BF9219
:100C4000CF92DF92EF92FF921F93CF93DF937C01BD
:100C50008AE797E06BE540E050E00E9477248AE75E
:100C600097E0B7010E9489238AE797E06DE540E0AD
:100C700050E00E94A624F701208180E090E0182F28
:100C8000FC01E758FF4FE491E21741F01F5F019626
:100C900080319105A1F7103108F06CC00E94F72552
:100CA0009B01AC01812F90E0FC01EE0FFF1FEE0FC6
:100CB000FF1FE80FF91FEB50FE4F81E08083218377
:100CC000328343835483E0914E02F0E0E05EFE4FB6
:100CD000808180934F02CAEFD1E061E070E08881AB
:100CE0008823B1F089819A81AB81BC8159016A0165
:100CF000A81AB90ACA0ADB0AD601C501805C974264
:100D0000A940B0402CF4FB01E758FF4F849101C08B
:100D100080E2FB01E15BFD4F808325966F5F7F4F93
:100D2000F2E0C534DF07D9F681ED91E060E040E004
:100D30000E944F1681ED91E0B7010E948923C701FF
:100D40000E94EA27182F08C081ED91E060E240E0A0
:100D500050E00E9477241F5F1031B0F381ED91E0E5
:100D600060E041E00E944F1681ED91E06FE472E097
:100D70000E948923DF91CF911F91FF90EF90DF9028
:100D8000CF90BF90AF9008950F931F9301ED11E0A6
:100D9000C80162E040E120E00E948316C80160E0E3
:100DA00071E00E9489231F910F9108959C01DC013D
:100DB000A954BF4F8C91F901E80FF11D60838F5F3B
:100DC0008C93843B09F41C92F901E854FF4F808115
:100DD0008F5F808308959C01DC01AC54BF4F8C91E0
:100DE000F901E80FF11D90818F5F8C93843B09F42A
:100DF0001C92F901EA54FF4F808181508083892F32
:100E00000895FC01EB54FF4F808132968083319628
:100E100010820895AF92BF92CF92DF92EF92FF922D
:100E20000F931F93CF93DF93EC01062F86EBE82EF1
:100E3000F12CEC0EFD1EF701B080BB2001F1CC546B
:100E4000DF4FA880C45BD040670110C0CE01C3DF74
:100E50008823E1F710E0CE01BEDF1F5F1430D9F721
:100E6000CE01B9DF801759F0043649F0F6018081D0
:100E7000882361F7CC54DF4FA882F701B082DF915D
:100E8000CF911F910F91FF90EF90DF90CF90BF9087
:100E9000AF900895EF92FF920F931F93CF93DF933C
:100EA000EC018C010A541F4F94EBE92EF12C03C086
:100EB000CE0164E6AFDFF80180819701281B31097C
:100EC00025353105ACF3DF91CF911F910F91FF9044
:100ED000EF9008951F93CF93DF93EC01162F6623B5
:100EE00099F0C854DF4F8881C85BD040882311F443
:100EF000CE01D0DFC854DF4F8881C85BD040803539
:100F000018F4CE01612F52DFDF91CF911F91089528
:100F1000EF92FF920F931F93CF93DF93EC01FC01AD
:100F2000E854FF4F8081803538F0CB54DF4F888103
:100F300022968883108248C0CE0160E037DF0E948D
:100F4000F7257B018C01212F552727FD5095352F43
:100F5000452FCE01622F2ADF9801552737FD509586
:100F6000452FCE01622F22DF552717FD5A95412FBD
:100F7000302F2F2DCE01622F19DFCE016E2D16DFFF
:100F8000FE01E754FF4F80818F5F8083843610F02D
:100F900081E08083FE01E754FF4FCE01608106DFD0
:100FA000FE01EB54FF4FC954DF4F8881C75BD0402F
:100FB0008083FE01EA54FF4FDE01A854BF4F8C919D
:100FC0009081890F80831C92DF91CF911F910F91A7
:100FD000FF90EF9008950F931F93CF93DF938C01B1
:100FE000EB0102C0C80176DFFE0121966491662301
:100FF000C9F7C8018DDFDF91CF911F910F9108953F
:101000002F923F924F925F926F927F928F929F9218
:10101000AF92BF92CF92DF92EF92FF920F931F9306
:10102000DF93CF93CDB7DEB72B970FB6F894DEBF23
:101030000FBECDBF9B878A872B014B831901DC0133
:10104000AC54BF4F2C912A839C012A543F4FF90185
:10105000F081F98310E03D832C83242F30E03F831F
:101060002E83B987A88795C0A885B985EC90E40D33
:10107000F51DB1E3B083812F8F5FF201E80FF11D01
:101080002CE22083782E73943B81731608F0B7C04E
:101090008A859B85A0DE882309F4B1C0F201E70DA3
:1010A000F11D8083F0CF8A859B858C549F4FDC0196
:1010B000EC9212960C93A65BB040BB87AA8778C0CF
:1010C0008A859B8588DEA82EBB24CC24DD24DA2CDF
:1010D000CC24BB24AA248A859B857DDEE82E8A85C4
:1010E0009B8579DE682E8A859B8575DEFF2400E06E
:1010F00010E08701FF24EE24AE28BF28C02AD12AA1
:1011000090E0A0E0B0E0A82AB92ACA2ADB2A840C21
:10111000951C2CE2F4012083172D1F5F0E94F725F8
:10112000772488249924982C872C762C6624A6284A
:10113000B728C828D928A61AB70AC80AD90AA20106
:10114000410F511DC601B5012AE000E70E9430128F
:10115000180F8A859B853FDED1018C93F201E10F48
:10116000F11DBCE2B0831F5FB201610F711DF1017F
:10117000808190E042E020E60E946411180FF201A5
:10118000E10FF11D8AE080831F5FD1018C918336CE
:1011900079F0EC81FD810081002351F0E12FF0E036
:1011A000CF0101962E813F81821793070CF45CCF0B
:1011B000410E511CD2011C92EA85FB85EC54FF4F75
:1011C0002A812083329639813083812F2B960FB666
:1011D000F894DEBF0FBECDBFCF91DF911F910F916D
:1011E000FF90EF90DF90CF90BF90AF909F908F9047
:1011F0007F906F905F904F903F902F900895872C35
:101200009924C4010F96AE81BF818A179B070CF405
:1012100057CF49CF1F93CF93DF93EC01162F84EE66
:1012200091E06AE870E00E94B627A7EEB1E080E0A6
:1012300090E0212F30E08217930714F0E0E208C01D
:10124000FE01E80FF91FE081F0E0ED5AFE4FE0816A
:10125000ED9301968D30910571F7DF91CF911F913C
:101260000895CF92DF92EF92FF920F931F936C013C
:1012700084EEE82E81E0F82EC7016DEB70E00E944D
:10128000B627F60101858AE0089F80011124808538
:10129000080F111D86E1B80140E09CD283E090E088
:1012A000E80EF91EC801B70142E020E20E94641175
:1012B000F6018781EFE1F1E0E80FF11DE491E093A1
:1012C000F3011F910F91FF90EF90DF90CF90089561
:1012D000DF92EF92FF920F931F93CF93DF937C01E6
:1012E00084EE91E06BE970E00E94B627D701149676
:1012F000DC9014971A969C911A9784E6989FE001C7
:10130000112419968C9119972AE0829FC00111240B
:10131000C80FD91F18968C911897C80FD11D1B960E
:101320008C91882319F0D095C195DF4FF701058581
:101330008AE0089F800111248485080F111D8D2DDE
:10134000BE0141E047D28D2D865FB80140E042D218
:10135000F0E3DF0ED092E401CE0167EE71E045E0EC
:1013600021E3B2D7C8016DEE71E042E020E2ACD7D4
:10137000D7011796EC91F0E0E15EFE4FE491E09327
:10138000F301DF91CF911F910F91FF90EF90DF90CC
:101390000895AF92BF92CF92DF92EF92FF920F9398
:1013A0001F93CF93DF935C0124EEC22E21E0D22E57
:1013B000C6016EEC70E00E94B627F5016085C62F6D
:1013C000D0E0E08834E6E39E7001112487852AE0AE
:1013D000829FC0011124E80EF91E8685E80EF11CDB
:1013E0000585039F800111248485829FC0011124FB
:1013F000080F191F8385080F111D87E1BE0140E00A
:10140000E9D188E1B70141E0E5D189E1B80141E0E6
:10141000E1D183E090E0C80ED91EC701B60143E0D8
:1014200020E252D7E4E0F0E0CE0EDF1EC801B601A4
:1014300043E020E249D7CC0FDD1FCC0FDD1FC152A6
:10144000DF4FC6010496BE0143E050E00E94A4278E
:10145000F5018781EFE1F1E0E80FF11DE491E09300
:10146000F301DF91CF911F910F91FF90EF90DF90EB
:10147000CF90BF90AF9008958F929F92AF92BF92FE
:10148000CF92DF92EF92FF920F931F935C0134EEA5
:10149000832E31E0932EC4016CEA70E00E94B627DF
:1014A000F501618970E080E090E020EA36E841E0F3
:1014B00050E00E941B277B018C01F501608970E0E0
:1014C00080E090E020E137E240E050E00E941B27FE
:1014D000E60EF71E081F191FF5018485E80EF11CA2
:1014E000011D111D878590E028EE33E0AC01429F7D
:1014F000C001439F900D529F900D1124AA2797FD84
:10150000A095BA2FE80EF91E0A1F1B1F868544E618
:10151000849FC0011124AA2797FDA095BA2FE80E39
:10152000F91E0A1F1B1F85855AE0859FC0011124E3
:10153000AA2797FDA095BA2FE80EF91E0A1F1B1FB8
:10154000838590E0829F6001839FD00C929FD00C96
:1015500011248285849FC0011124C80ED91E808564
:10156000C80ED11C8185859FC0011124C80ED91ECB
:1015700085E1B60142E02ED183E090E0880E991E0D
:10158000C801B701A40126E000E26AD7E7E0F0E075
:101590008E0E9F1EC601B40145E022E295D6F501EC
:1015A0008781EFE1F1E0E80FF11DE491E093F301B1
:1015B0001F910F91FF90EF90DF90CF90BF90AF9071
:1015C0009F908F900895FC018381482F50E02081E7
:1015D000922F9295907F80E0482B592B918180E04B
:1015E000482B592B828190E074E0880F991F7A95DF
:1015F000E1F7482B592B88EF443B580721F188EF3E
:10160000453B580764F48CEE4037580711F188EFDA
:1016100044325807C1F04457584D09F51AC089E1C2
:1016200044395807C9F089E14539580724F444582A
:101630005941A9F411C08DE14032580721F04451BD
:10164000594269F403C0CF0143DE0BC0CF0114DF60
:1016500008C0CF0106DE05C0CF019BDE02C0CF016E
:10166000D9DD84EE91E0EACA0F931F93CF93DF9305
:101670008C01EB01FE0121966491662349F0D801AB
:10168000ED91FC910190F081E02DC8010995F2CF18
:10169000DF91CF911F910F910895089508950895B6
:1016A0000895E6E2F3E0482F50E0382F309521818D
:1016B000822F90E084239523892B39F023232183E3
:1016C000662319F0808183238083359683E0E33F8E
:1016D000F80769F70895DC019A968C919A97823001
:1016E00049F1833028F4882341F08130F1F51AC0A4
:1016F000833021F18430C9F530C06A3021F481E0B3
:101700009A968C9308956D3081F19B968C919B975E
:10171000843158F5FD01E80FF11D64A78F5F9B969A
:101720008C9308956D3011F482E00BC06A3021F083
:1017300083E007C06A3021F484E003C06A3021F4FA
:1017400081E09A968C939A97ED91FC91119706807F
:10175000F781E02DCD0109950895ED91FC91119748
:101760000084F185E02DCD0109950895CF93DF9395
:10177000EC016D3019F090E06A3009F491E0DE017F
:10178000A45ABF4F8C918C3070F49923F9F4E82F50
:10179000F0E0E05DFE4FE4916E1711F48F5F01C041
:1017A00080E28C9314C0803270F4992311F081E2AE
:1017B000F8CFFE01E80FF11D63AF8F5F8C93C80F68
:1017C000D11D1BAE04C0803211F491111C92DF9127
:1017D000CF91089590E0FC01EE0FFF1FEE0FFF1F69
:1017E000E80FF91FED5DFC4F7183608342838FEF3B
:1017F000838308950F931F938CE995E062E271E073
:1018000048E251E02CE231E000E311E00E945E1575
:101810001F910F910895CF92DF92EF92FF920F9355
:101820001F93CF93DF93FC01EC01C35ADF4F8881F4
:101830008230D1F0833030F4882351F0813009F0C8
:1018400060C00AC08330F9F0843009F05AC026C065
:10185000623321F481E005C06C3211F086E001C0F2
:1018600082E0E35AFF4F21C06C3231F48AE797E0FF
:101870000E94882483E044C08AE797E040E050E07B
:101880000E9477243EC06C32E1F584E08883EF5BF0
:10189000FF4F108211821282138233C06D3011F01B
:1018A0006A3029F4E35AFF4F85E080832AC0862FEF
:1018B00080538A3020F531E4C32ED12CCE0EDF1EAA
:1018C000E62EFF2480ED9FEFE80EF91E0027F7FCBF
:1018D0000095102FF60160817181828193812AE049
:1018E00030E040E050E00E941B27E60EF71E081F84
:1018F000191FF601E082F1820283138302C086E0A1
:101900008883DF91CF911F910F91FF90EF90DF902F
:10191000CF9008950F931F93CF93DF93FC01EA5B61
:10192000FF4F8081E654F0408823A1F4EF01C95BAA
:10193000DF4F8881882371F08F01015F1F4FC8013D
:101940006DE371E091DEC801BE010E948923C801E8
:101950000E948824DF91CF911F910F910895EF92FB
:10196000FF920F931F93CF93DF93EC018C01015FE4
:101970001F4FC8016BE571E077DE41E4E42EF12CE6
:10198000EC0EFD1EF70180819181A281B3811816B2
:1019900019061A061B0674F4C80163E571E064DEDB
:1019A000F7014081518162817381C8012AE030E0F2
:1019B0000E944324CA5BDF4F8881C654D0408823ED
:1019C00021F0C80166E471E04FDEC45ADF4F19927E
:1019D0001882DF91CF911F910F91FF90EF900895A2
:1019E000FF920F931F93CF93DF93EC0189A5882378
:1019F00009F45DC08E01015F1F4FC80110D7882315
:101A0000B1F0CE014F960E949917882381F405C04A
:101A1000C8018DD7682FCE015EDEC801AFD7892BF4
:101A2000B9F7C801FCD6882311F081E040C0C80195
:101A300019D719A68AA5882311F18E01045D1F4FBD
:101A40008DE691E00E94BD27AC01C8016DE671E012
:101A50000E94C627892B99F48BA5FE01E80FF11D82
:101A600014A6C80166E771E00E94AD27FF24892B08
:101A700011F4FF24F3941CAEC801E0D80FC06F81AD
:101A800078858AE797E0F0DD8AE797E066E871E01D
:101A9000EBDD8AE797E00E948824FF24E881F98142
:101AA0000190F081E02DCE016F2D099580E0DF914E
:101AB000CF911F910F91FF900895882319F01092F4
:101AC0001A03089580911A038823B1F481E080936A
:101AD0001A030E94F72560931B0370931C038093E5
:101AE0001D0390931E0360931F0370932003809344
:101AF0002103909322030895823069F483E0809358
:101B00001A030E94F72560931F03709320038093AC
:101B100021039093220308950F931F93CF93DF9394
:101B2000EC01162F862FC9DF112359F1FE01EA5B64
:101B3000FF4F8081DE01AB5BBF4F882319F010821D
:101B40001C9204C080E692E06C9164D9C35ADF4FC6
:101B50008881CD55D040853041F0CF5BDF4F188272
:101B600019821A821B82C154D040C25ADF4F188298
:101B70008E0108541040C80140E65AEE60E070E063
:101B80000CC0C25ADF4F81E088838E010854104098
:101B9000C80140E157E260E070E00E946117C801AF
:101BA0000E946717DF91CF911F910F910895EF92D7
:101BB000FF921F93CF93DF937C01162F862F7DDF3B
:101BC000F7018281612F6DDDE7016696112329F40B
:101BD00040E157E260E070E004C040EE53E964E0A9
:101BE00070E0CE010E946117CE010E946717DF915D
:101BF000CF911F91FF90EF900895FF920F931F9345
:101C0000CF93DF938C01F62E80911A03813019F067
:101C1000833009F048C00E94F72520911B033091C2
:101C20001C0340911D0350911E03621B730B840B18
:101C3000950B61587E4E8643904020F08FE061E026
:101C40000E9494260E94F72520911F0330912003C3
:101C50004091210350912203621B730B840B950B5F
:101C600061567A4E80409040F0F08AE797E063EE4C
:101C700071E0FADC80911A03813069F480E692E029
:101C800063EE71E0A8D98AE797E06AE240E050E0AD
:101C90000E94A62404C08AE797E00E94882482E07C
:101CA00080931A03A7DDF801678170858AE797E0C2
:101CB000DBDC8AE797E06AE340E050E00E947724AB
:101CC0008AE797E060E240E050E00E947724D80184
:101CD0001D966D917C911E978AE797E0C5DC8AE797
:101CE00097E060E240E050E00E9477248AE797E0C6
:101CF0006F2D4AE050E00E9432248AE797E06CEDB5
:101D000071E0B2DC8AE797E00E948824E8012F9610
:101D1000CE0172D6882389F4F801678170858AE73D
:101D200097E0A2DC8AE797E068EC71E09DDC8AE747
:101D300097E00E94882480E064C0D8011D966D91D0
:101D40007C911E97CE0190DCCE0160E240E050E035
:101D50000E947724F80161857285CE0185DCD80167
:101D6000ED91FC910280F381E02DC8010995CE012F
:101D70006EEB71E079DCCE010E948824CE0167EB26
:101D800071E072DCF80167817085CE016DDCCE01F7
:101D90000E948824D8011B966D917C911C97CE01DE
:101DA00063DCCE010E948824D801ED91FC9104806F
:101DB000F581E02DC8010995CE0165EA71E054DC9A
:101DC000CE010E948824CE0164E971E04DDCCE0191
:101DD0006F2D4AE050E00E943224CE010E948824F8
:101DE000CE010E948824CE016BEE73E00E9489230D
:101DF000C8014F960E94671781E0F80181A712A6DB
:101E000013A6DF91CF911F910F91FF900895DF925C
:101E1000EF92FF920F931F93DF93CF930F92CDB763
:101E2000DEB78C01E82ED12EDBDD882309F068C0F7
:101E3000025A1F4FD8018C910E551040882309F487
:101E400046C0C80146960E949917882309F03FC0F2
:101E500057C00F5B1F4FF80180819181A281B38130
:101E6000015410400097A105B10571F4C8014696D0
:101E70000E949917882341F443C00A5B1F4F81E0F9
:101E8000D8018C93065410400A5B1F4FF8018081E3
:101E900006541040882321F01092EB03FF2407C062
:101EA0000B5B1F4F8981D8018C93055410408E2DF8
:101EB0009D2D6F2DA2DE882319F5D801ED91FC919F
:101EC0000190F081E02DC80160E0099519C01982E8
:101ED00080E692E06BEE73E048EC9E012F5F3F4F8F
:101EE0008FD8F82E882309F4B4CF0B5B1F4F99814C
:101EF000F801808105541040981708F4BECFC4CF74
:101F00000F90CF91DF911F910F91FF90EF90DF9095
:101F100008959F92AF92BF92CF92DF92EF92FF927D
:101F20000F931F93CF93DF937C015ADD882309F031
:101F30006DC0D70198968C91882309F05CC0C701C9
:101F40004696F7D7882309F056C060C0202F30E0AE
:101F5000E901CC0FDD1FCC0FDD1FC20FD31FCD5DFC
:101F6000DC4F8B8190E08C219D21892B19F18C8194
:101F70008B298C83612F70E065517C4FC90142E051
:101F800020E6A2D1180FE12FF0E0E551FC4F90823E
:101F90001F5F612F70E065517C4F2A812066888128
:101FA000998145E091D1180FE12FF0E0E551FC4F08
:101FB000A0821F5F0F5F083210F41E3B38F2802FA3
:101FC000E12FF0E0E551FC4F1082083208F080E08C
:101FD000F70180A71123D1F0C701612F0EDE8823FE
:101FE000A9F4D701ED91FC910190F081E02DC7019A
:101FF00060E009950BC0F701B28000A510E0CB2C82
:10200000DD246CE2962E5AE0A52ED5CFDF91CF913C
:102010001F910F91FF90EF90DF90CF90BF90AF9006
:102020009F90089583EB94E074DF84EF94E071DF78
:1020300085E395E0ECCE5F926F927F928F929F92B4
:10204000AF92BF92CF92DF92EF92FF920F931F93C6
:10205000DF93CF93CDB7DEB73C01162FF42E522E6F
:10206000A60189E491E0F30191838083B3016D5F60
:102070007F4FC3010F96A4D3C301469640E65AEEA4
:1020800060E070E044D7C3014F9640E355E760E05D
:1020900070E03DD7F3011283F38254820583E68218
:1020A000B086A782928681868A899B899487838756
:1020B00086EF91E096878587CF91DF911F910F91F1
:1020C000FF90EF90DF90CF90BF90AF909F908F9058
:1020D0007F906F905F9008955F926F927F928F9242
:1020E0009F92AF92BF92CF92DF92EF92FF920F93A7
:1020F0001F93DF93CF93CDB7DEB73C01162FF42E9D
:10210000522EA60189E491E0F30191838083B3010B
:102110006D5F7F4FC3010F9653D3C301469640E6D0
:102120005AEE60E070E0F3D6C3014F9640E355E706
:1021300060E070E0ECD6F3011283F38254820583F1
:10214000E682B086A782928681868A899B89948757
:10215000838786EF91E096878587CF91DF911F91E6
:102160000F91FF90EF90DF90CF90BF90AF909F9036
:102170008F907F906F905F9008956F927F928F9273
:102180009F92AF92BF92CF92DF92EF920F93DF9325
:10219000CF93CDB7DEB73C0100D08F859889EDB7DE
:1021A000FEB792838183C30197DF8BE391E0F30154
:1021B0009183808326E430E0620E731E81E0F30198
:1021C000808328E130E0620E731EF301808322EAEF
:1021D0003FEF620E731E0F900F90C301469648EBBF
:1021E0005BE060E070E06DD688E691E0F3019687F1
:1021F0008587CF91DF910F91EF90DF90CF90BF90C7
:10220000AF909F908F907F906F9008954F925F92C4
:102210006F927F928F929F92AF92BF92CF92DF92F6
:10222000EF920F9300D08EE192E0EDB7FEB792836C
:10223000818383EB94E061E04DEA2BEC02E65DE103
:10224000E52E30E5C32ED12CBAEFAB2EB1E0BB2E7C
:10225000AAE08A2EA2E09A2EEEDEF0E74F2EF2E000
:102260005F2EE7E96E2EE2E07E2EEDB7FEB77282BA
:10227000618284EF94E062E04AE42DE70DE479E7BF
:10228000E72E520150E8852E52E0952ED4DEEDB7B0
:10229000FEB77282618285E395E064E04AE42DE74F
:1022A0003AE8832E32E0932E68DF0F900F900F9163
:1022B000EF90DF90CF90BF90AF909F908F907F90E6
:1022C0006F905F904F9008952F923F924F925F9240
:1022D0006F927F928F929F92AF92BF92CF92DF9236
:1022E000EF92FF920F931F93DF93CF9300D000D014
:1022F000CDB7DEB7FC015B01842E022F10E0C801D0
:10230000807290709A83898325FD03C07BE2C72E7B
:1023100002C060E2C62EF7FF05C0F095E195FF4FC1
:102320005DE2C52EC8018F709070892B11F499243D
:1023300004C04FE0942E92229394882D90E0D50112
:10234000A80FB91FBC83AB8340E0DD2431E0E32E4E
:10235000F12C292C332420E1422E512C40225122F1
:102360003C0108946108710840C02B813C812150D8
:1023700030403C832B838D2D90E0E214F30429F44C
:102380002EE2AB81BC812C932BC0A981BA81AB2BEF
:1023900071F0309761F49D1450F4AB81BC81CC9204
:1023A000B0E2CB16F1F04F5F80E2C82E1AC04114A4
:1023B000510439F08615970521F4AB81BC81CC928C
:1023C0000FC0CF016AE070E00E943A27805DAB81C8
:1023D000BC818C93CF016AE070E00E943A27FB0138
:1023E0004F5FD3940894E11CF11CD81408F4BDCFBE
:1023F00006FF1EC04815E0F4A82DB0E0A41BB109EB
:10240000AA0DBB1D20E030E007C0F501E20FF31F6D
:102410008D9180832F5F3F4F2417B8F3842F90E274
:1024200005C0F501E80FF11D90838F5F8815C8F393
:10243000842F0F900F900F900F90CF91DF911F91ED
:102440000F91FF90EF90DF90CF90BF90AF909F9053
:102450008F907F906F905F904F903F902F90089556
:102460002F923F924F925F926F927F928F929F92A4
:10247000AF92BF92CF92DF92EF92FF920F931F9392
:10248000DF93CF93CDB7DEB72A970FB6F894DEBFB0
:102490000FBECDBF6B017C013A01322EA02EBB24B2
:1024A0009501207230703A83298305FD03C09BE2B9
:1024B000592E02C080E2582EF7FE0AC0F094E09434
:1024C000D094C094C11CD11CE11CF11C1DE2512E02
:1024D000C5018F709070892B11F4442404C0BFE0B3
:1024E0004B2E40224394832D90E0F301E80FF91F17
:1024F000FA87E98710E000E0A1E08A2E912C242DD4
:1025000030E03C832B83F501E071F070FE83ED83B6
:102510009C012150304038872F83FEE22F2E4FC080
:1025200089859A8501979A878987802F90E0EB812A
:10253000FC818E169F0621F4E985FA8520823AC037
:1025400029813A81232B89F0C114D104E104F104DB
:1025500061F4401650F4E985FA855082F0E25F1686
:1025600051F11F5FE0E25E2E26C02D813E81232BBC
:1025700049F0EF81F8858E179F0721F4E985FA85E8
:10258000508218C0C701B6012AE030E040E050E0B8
:102590000E946F27605DE985FA856083C701B601F7
:1025A0002AE030E040E050E00E946F27C901DA01E4
:1025B0006C017D011F5F0F5F0894811C911C031546
:1025C00008F4AECFA6FE1EC01315E0F4A32DB0E0B4
:1025D000A11BB109A60DB71D20E030E007C0F30133
:1025E000E20FF31F8D9180832F5F3F4F2117B8F3C8
:1025F000812F90E205C0F301E80FF11D90838F5FFA
:102600008315C8F3812F2A960FB6F894DEBF0FBE4C
:10261000CDBFCF91DF911F910F91FF90EF90DF9091
:10262000CF90BF90AF909F908F907F906F905F9072
:102630004F903F902F900895EF92FF920F931F932A
:1026400064EF71E080E090E00E942B260AE717E03B
:10265000C80140E051EE60E070E00E94522284EC3C
:10266000E82E82E0F82EC801B7010E94340BC801A1
:102670006AE240E050E00E94A6240E94C406BAD854
:1026800080E692E0B7010E94EB078DE995E0B8D5AE
:102690000E94B8021F910F91FF90EF900895EF9262
:1026A000FF920F931F93DF93CF93CDB7DEB7C6543E
:1026B000D0400FB6F894DEBF0FBECDBF2FE4298304
:1026C00023E52A83405D4B832AE32C83AC0124E07D
:1026D00030E070E08E010F5F1F4F0DC07801E20EF9
:1026E000F31EFA01A081B0E0AD5ABE4F8C91F70104
:1026F00080832F5F3F4FC9010197861797072CF4FE
:102700004F5F5F4F2734310549F7BE016F5F7F4F41
:10271000260F371FF90110828AE797E00E949D2457
:10272000CA5BDF4F0FB6F894DEBF0FBECDBFCF91AF
:10273000DF911F910F91FF90EF900895EF92FF921C
:102740001F93DF93CF93CDB7DEB7C254D0400FB6FF
:10275000F894DEBF0FBECDBF8DE995E041D488234C
:10276000D1F092E0E92EF12CEC0EFD1E8DE995E002
:10277000B70141E49E012F5F3F4F34D4182F8230C0
:1027800050F0C701612F49818ADF1150CE010396B5
:10279000612F0E94E30ACE5BDF4F0FB6F894DEBFD5
:1027A0000FBECDBFCF91DF911F91FF90EF900895A5
:1027B000C5DF0E94FC0536DC0E94CE050C94DE02CB
:1027C000FC0188E691E09183808384E082837483B6
:1027D0006383568345830895CF93DF93EC0107C04D
:1027E000E881F9810084F185E02DCE010995E88129
:1027F000F9810680F781E02DCE010995892B81F7BB
:10280000DF91CF910895FC018281843011F480E042
:102810000895982F80E08D5F9B4F0C946920CF9393
:10282000DF93EC018A81843011F480E018C0CE017E
:10283000EADF843191F0882381F0883171F08C31A6
:1028400051F4E881F9810680F781E02DCE010995E8
:1028500020E0892B19F021E001C020E0822FDF91D8
:10286000CF910895EF92FF920F931F93CF93DF9331
:10287000EC018A81843079F10E94DC1C0E94F725EA
:102880007B018C01CE01BFDF882301F10E94F72577
:102890006E197F09800B910B685E734080409040F9
:1028A000A8F461E070E080E090E00E942B26EACF7F
:1028B0008A810E94F01CEA81F0E0EE0FFF1FEC56C7
:1028C000FA4F1182108284E08A8305C0CE019BDF1B
:1028D000882389F3EDCFDF91CF911F910F91FF9066
:1028E000EF9008950F931F93DF93CF930F92CDB77F
:1028F000DEB78C01DC01ED91FC910680F781E02DC3
:102900000995892B19F42FEF3FEF0AC0F801828156
:10291000BE016F5F7F4F0E94891D8981282F30E0A3
:10292000C9010F90CF91DF911F910F9108950F93DF
:102930001F93DF93CF930F92CDB7DEB78C01DC01ED
:10294000ED91FC910680F781E02D0995892B19F412
:102950002FEF3FEF0CC0F8018281BE016F5F7F4F08
:1029600041E050E00E94971D8981282F30E0C90185
:102970000F90CF91DF911F910F910895FC0162811B
:10298000643019F420E030E005C086EE96E00E9445
:10299000F6209C01C9010895FC018281843011F068
:1029A0000C94B71D0895DF93CF930F92CDB7DEB788
:1029B0006983FC018281843039F0BE016F5F7F4FF3
:1029C00041E050E00E94B71D0F90CF91DF91089534
:1029D0001F93CF93DF93EB01FC011281143041F080
:1029E000CB010E94EA27AC01812FBE010E94B71DD6
:1029F000DF91CF911F910895EF92FF920F931F9354
:102A0000CF93DF937C01FC018281843009F04EC0BA
:102A1000C0E0D0E003E014E0C8010E9469208823F0
:102A200011F0883119F4F701C28306C021960050D5
:102A30001F4FC430D10581F7F70122812430B1F155
:102A400080913401909135010196909335018093E6
:102A50003401892B31F480E094E090933501809328
:102A600034014091340150913501822F61E020E022
:102A7000E5D7F701638174814581568182810E9487
:102A8000521D08C061E070E080E090E00E942B26BB
:102A9000C701B9DE882321F484E0F701828306C0F0
:102AA000C701B1DE873171F781E001C080E0DF91BD
:102AB000CF911F910F91FF90EF900895AF92BF9229
:102AC000CF92DF92EF92FF920F931F937B016A01E7
:102AD000590186EE96E00E94F32189E090E0B7016B
:102AE00046E050E00E9442208FE090E0B60144E0D2
:102AF00050E00E94422081E090E0B50144E050E0C7
:102B00000E94422085E090E0B80144E050E00E943D
:102B100042201F910F91FF90EF90DF90CF90BF90D8
:102B2000AF9008950F931F938C01FC01848160E0A6
:102B30000E94E72681E090E00E944F26F801848100
:102B400061E00E94E72681E090E00E944F26F801B4
:102B5000848160E00E94E72684E690E00E944F2690
:102B60001F910F910895CF92DF92EF92FF920F93F2
:102B70001F93CF93DF93D82EC92E282F392FC90149
:102B80008C01C0E0D0E0E62EFF24F801858161E0F1
:102B90000E949426B7010C2E02C0759567950A9481
:102BA000E2F76170F80185810E94E72621960F5FA8
:102BB0001F4FC830D10549F78D2D9C2DB3DFDF9114
:102BC000CF911F910F91FF90EF90DF90CF900895DC
:102BD000CF92DF92EF92FF920F931F93CF93DF93E9
:102BE000D82EC92E282F392FC9018C01C0E0D0E082
:102BF000E62EFF24F801858161E00E949426B7014A
:102C00000C2E02C0759567950A94E2F76170F80181
:102C100085810E94E72621960F5F1F4FC430D105A2
:102C200049F78D2D9C2D7EDFDF91CF911F910F9164
:102C3000FF90EF90DF90CF9008951F93CF93DF9395
:102C4000EC01162F8A81642F0E94E7268B818F3F2B
:102C500019F060E00E94E7268D8584FF04C0CE0154
:102C6000612F81DF0CC0612F70E084E0759567955E
:102C70008A95E1F7CE01ACDFCE01612FA9DFDF91AC
:102C8000CF911F91089541E0D8CF40E0D6CFFC010D
:102C90006685862F846086876C60CF01F6CFDF93D0
:102CA000CF93CDB7DEB728970FB6F894DEBF0FBE2F
:102CB000CDBF9C01FE013196A0E8B1E088E00D9007
:102CC00001928150E1F7F9018189841710F4482FAE
:102CD0004150E42FF0E0EE0FFF1FEC0FFD1F81814C
:102CE000680F6068C901D1DF28960FB6F894DEBF7F
:102CF0000FBECDBFCF91DF91089561E0C6DF80EDBB
:102D000097E00C944F26CF93DF93EC01423018F0FC
:102D10008D8588608D87498B1A8A222329F041305E
:102D200019F48D8584608D8780E593EC0E944F2691
:102D30008A8160E00E94E7268C8160E00E94E7269D
:102D40008B818F3F19F060E00E94E7266D8564FD5E
:102D500019C0CE0163E03CDF84E991E10E944F2677
:102D6000CE0163E035DF84E991E10E944F26CE0178
:102D700063E02EDF86E990E00E944F26CE0162E0FC
:102D800027DF13C06062CE0180DF84E991E10E94F9
:102D90004F266D856062CE0178DF86E990E00E9463
:102DA0004F266D856062CE0170DF6D856062CE0159
:102DB0006CDF84E08E87CE016ADFCE019EDF82E089
:102DC0008F87CE0166E061DFDF91CF9108956F922A
:102DD0007F928F92AF92CF92EF920F931F93DF93D8
:102DE000CF93CDB7DEB73C01162F842FF30142837A
:102DF00023830483E582C682A78280869D8591878E
:102E00009E8592879F8593879889948761E00E9429
:102E10009426F30183818F3F19F061E00E9494268C
:102E2000F301848161E00E949426112319F0F301DB
:102E3000158603C080E1F3018587C30160E141E0AD
:102E400020E061DFCF91DF911F910F91EF90CF9044
:102E5000AF908F907F906F9008958F92AF92CF92A6
:102E6000EF920F931F93CF93DF93DC01362F542FF4
:102E7000722F102FAE2C8C2C8AE791E011969C9328
:102E80008E9300D000D0EDB7FEB73196CDB7DEB748
:102E90001982118212821382CD0161E0432F2FEF3C
:102EA000052FE72EC12E93DF0F900F900F900F90FC
:102EB000DF91CF911F910F91EF90CF90AF908F90B6
:102EC0000895FC01458356836783708708950F93A7
:102ED0001F938C010E94F725F8016183728383831D
:102EE00094831F910F9108950F931F938C01FC0100
:102EF000208345835683678370870E94F725F801F6
:102F000061837283838394831F910F9108950F933C
:102F10001F938C01FC0145835683678370870E9451
:102F2000F725F80161837283838394831F910F9146
:102F30000895EF92FF920F931F93CF93DF93EC01CD
:102F40000E94F725E980FA800B811C812D813E814A
:102F50004F8158856E197F09800B910B621773079B
:102F60008407950710F480E018C02115310541054C
:102F7000510519F08881882339F00E94F72569836B
:102F80007A838B839C8308C02E0D3F1D401F511FE9
:102F900029833A834B835C8381E0DF91CF911F913A
:102FA0000F91FF90EF900895FB01E40FF51FB081A2
:102FB000918121E030E0A0E007C0FB01E20FF31FA8
:102FC0008081A80F2F5F3F4F24173507B4F380E0AF
:102FD0009295907F9B2BA91709F481E0089508959D
:102FE000A0C408954F925F926F927F928F929F92AA
:102FF000AF92BF92CF92DF92EF92FF920F931F9307
:10300000DF93CF930F92CDB7DEB76C015B01142F26
:10301000290187D4882309F4DFC0C501612FAE01DF
:103020004F5F5F4F97D4182F84D48824F501808197
:103030008A3011F4882483941C3108F441C06AE07A
:1030400070E020E030E040E050E0E12EFF241DC0C1
:1030500094E0220F331F441F551F9A95D1F7F501B5
:10306000E60FF71F808190E0A0E0B0E0282B392B1D
:103070004A2B5B2BDA01C901AF70B0708A5F9F4F9A
:10308000AF40B04031F06F5F7F4F6E157F0504F3A6
:1030900017C0962E612E661A162F1450882091F4B0
:1030A0006623D1F1B501690D711DC501462D50E0B2
:1030B0000E94E1279924662410E08824839404C0A8
:1030C00099246624882041F1E12EFF2487010450D1
:1030D0001040C601B501A80167DF80FD13C087015C
:1030E00003501040C601B501A8015EDF882351F4EA
:1030F000870102501040C601B501A80155DF8111BA
:1031000081E0882E84E0782E700E882029F0898155
:10311000823009F05DC00CC0992009F45DC0B50192
:10312000690D711DC501462D50E00E94E12754C074
:103130000E94F7257B018C0120E430E0C20ED31EF3
:10314000F60180819181A281B38120EC3FEFC20E14
:10315000D31E88519C4FAF4FBF4FE816F9060A07A0
:103160001B0709F18E159F05A007B10748F4A801B8
:103170009701281B390B4A0B5B0B57FF14C006C085
:103180008E199F09A00BB10BB7FD0DC0472D50E064
:1031900042505040C501B6010E94D4278824892B93
:1031A00011F08824839440E450E0C40ED51EF6014B
:1031B000E082F1820283138320EC3FEFC20ED31E24
:1031C000C601B501472D50E00E94E127882021F07B
:1031D0008981F201808301C07724872D0F90CF91E0
:1031E000DF911F910F91FF90EF90DF90CF90BF90F4
:1031F000AF909F908F907F906F905F904F900895C9
:1032000066C308958DE061E00E9494268BE061E042
:103210000E9494268AE061E00E9494268DE060E09E
:103220000E94E7268BE060E00E94E7268AE061E0EA
:103230000E94E7268CB580618CBD8CB580648CBD06
:10324000089581E080932606609303061092240679
:103250001092250608958091020690910106891B1F
:1032600008959091010680910206981710F080E071
:103270000895E92FF0E0EF51FA4F80819F5F90931E
:10328000010608950895DF93CF930F92CDB7DEB76F
:10329000698380912606882389F0809125068032F3
:1032A00088F480912406E82FF0E0EC5FF94F60830A
:1032B0008F5F809324068093250604C0CE0101967B
:1032C00061E030D50F90CF91DF910895DCCF089564
:1032D0008091030664E076E04091250621E0DFD48A
:1032E0001092240610922506109226060895413267
:1032F00008F040E2862F61EE75E09AD41092010644
:10330000809302060895F3CF08951092010610925B
:103310000206109224061092250677C41F920F927F
:103320000FB60F9211241092700017BA0F900FBEB3
:103330000F901F9018951F920F920FB60F921124A5
:103340008F939F938091290690912A0601969093DE
:103350002A06809329069F918F910F900FBE0F90A0
:103360001F9018951F920F920FB60F9211242F9352
:103370003F934F935F936F937F938F939F93EF93BD
:10338000FF93109270002091290630912A06109226
:103390002A0610922906609186007091870080911C
:1033A000810082958695869583708095482F41701F
:1033B00080FD04C0809181008F7B03C080918100DB
:1033C0008064809381002230310518F02FEF3FEFA9
:1033D00007C080912B0690912C069B01281B390B6E
:1033E000442319F4E8E8F1E002C0EEE8F1E080815E
:1033F00091812817390738F08281938182179307CA
:1034000010F081E00EC0828193818217930740F40F
:10341000848195818217930718F080E021E002C033
:1034200080E020E090917706913009F467C09130F8
:1034300020F0933009F018C221C1882399F120911E
:1034400071063091720622303105F0F480917306D6
:10345000909174064A97C0F082E0809375061092AE
:10346000760683E08093770681E0809328061092A9
:10347000300610922F061092310681E090E0909372
:103480002E0680932D06F0C18091730690917406EC
:10349000892B09F0DDC12F5F3F4F309372062093D7
:1034A0007106E2C1222309F4D3C180917106909183
:1034B000720685319105A8F081E08093770683E05C
:1034C000809375061092280681E090E09093300674
:1034D00080932F061092310610922E0610922D0620
:1034E000C3C1029708F0B4C180917306909174062D
:1034F00001969093740680937306B6C1882309F4ED
:1035000056C080912806882309F44EC080912D066C
:1035100090912E06892BF9F020912F06322F3695A7
:10352000369590913006892F8295880F880F807C80
:10353000E82FE32BF92FF695F695EF5CF94F237002
:1035400081E090E002C0880F991F2A95E2F7208160
:10355000282B20831FC020912F06322F36953695B9
:1035600090913006892F8295880F880F807CE82FF4
:10357000E32BF92FF695F695EF5CF94F237081E078
:1035800090E002C0880F991F2A95E2F7809520816C
:103590008223808380912F0690913006019690932C
:1035A000300680932F06D8C0909328065DC1222351
:1035B00009F444C180912806882361F010927406B2
:1035C0001092730610927206109271061092750690
:1035D0001092770641E050E080912D0690912E06E2
:1035E0009A01281B390B30932E0620932D062115A6
:1035F0003105E1F090912F06392F369536952091BF
:103600003006822F8295880F880F807CE82FE32B6D
:10361000F22FF695F695EF5CF94F937002C0440FC8
:10362000551F9A95E2F78081842B1DC090912F063B
:10363000392F3695369520913006822F8295880F46
:10364000880F807CE82FE32BF22FF695F695EF5C40
:10365000F94F937002C0440F551F9A95E2F7842FDB
:10366000809590818923808380912F0690913006E8
:1036700001969093300680932F06F6C0882309F4B4
:1036800072C080912806882309F469C041E050E0A7
:1036900080912D0690912E069A01281B390B3093AC
:1036A0002E0620932D0680917606882369F01092CD
:1036B00074061092730610927206109271061092A0
:1036C00075061092770648C0232BE1F090912F06E3
:1036D000392F3695369520913006822F8295880FA6
:1036E000880F807CE82FE32BF22FF695F695EF5CA0
:1036F000F94F937002C0440F551F9A95E2F78081ED
:10370000842B1DC090912F06392F36953695209128
:103710003006822F8295880F880F807CE82FE32B5C
:10372000F22FF695F695EF5CF94F937002C0440FB7
:10373000551F9A95E2F7842F809590818923808385
:1037400080912F06909130060196909330068093D9
:103750002F0681E0809376061092280685C081E0CE
:103760008093280681C0222309F468C0809128062E
:10377000882361F0109274061092730610927206FC
:103780001092710610927506109277068091760657
:10379000882319F01092760667C080912D069091CB
:1037A0002E06892BF9F020912F06322F369536956B
:1037B00090913006892F8295880F880F807CE82FA2
:1037C000E32BF92FF695F695EF5CF94F237081E026
:1037D00090E002C0880F991F2A95E2F72081282BDC
:1037E00020831FC020912F06322F36953695909159
:1037F0003006892F8295880F880F807CE82FE32B75
:10380000F92FF695F695EF5CF94F237081E090E083
:1038100002C0880F991F2A95E2F7809520818223A4
:10382000808380912F069091300601969093300608
:1038300080932F0681E08093760616C080912F0634
:1038400090913006899720F082E0809377060CC033
:1038500010927406109273061092720610927106FE
:10386000109275061092770670932C0660932B06C3
:1038700080912F06909130068F3F910569F060F09E
:1038800010927406109273061092720610927106CE
:10389000109275061092770680917706813011F0AC
:1038A000833031F41092B20017BA81E08093700037
:1038B000FF91EF919F918F917F916F915F914F91C8
:1038C0003F912F910F900FBE0F901F901895E1E33D
:1038D000F6E0119286E0E137F807D9F71092740606
:1038E000109273061092720610927106109275066D
:1038F000109277061092800083E880938100809177
:10390000810080648093810081E280936F00109237
:10391000B00086E08093B1001092B2001092700067
:10392000089590E080917706823009F491E0892F24
:10393000089580917706823061F410927406109297
:10394000730610927206109271061092750610920C
:10395000770608951F93DC01FA0180917706823083
:1039600039F580917506808320912F06237059F0D8
:1039700080912F06909130060496821B91099093B6
:10398000300680932F0680912F068695869510919C
:1039900030061295110F110F107C182B611740F093
:1039A000CD0161E376E0412F50E00E94E12701C0A4
:1039B00010E0812F1F910895682F86EE96E048E071
:1039C00002C590E00496982F8827860F971F81C321
:1039D00090E00496982F8827860F971F642F38C38E
:1039E0001F93182F86EE96E0612F40E1ECD4812FD3
:1039F00062E070E04FEFECDF1F9108950F931F938B
:103A0000182F062F472F60E170E0E2DF812F61E180
:103A100070E0402FDDDF1F910F9108950F931F93EA
:103A2000182F062F472F64E070E0D2DF812F65E06A
:103A300070E0402FCDDF1F910F910895FF920F93FB
:103A40001F93CF93DF93082FF62EEA01122F862FB4
:103A50008150853010F080E01FC0802FC1DF1F290A
:103A6000802F60E070E0412FB3DF209719F0802FA6
:103A7000BE010BC060917806709179066F5F7F4F31
:103A80007093790660937806802FC8DF86EE96E003
:103A9000602F41E098D481E0DF91CF911F910F9189
:103AA000FF9008951F93CF93DF93182FFB01EA0136
:103AB00080818F3F51F481818F3F91F482818F3FCC
:103AC00079F483818F3F61F41FC0882349F4818199
:103AD000882331F48281882319F483818823A1F01B
:103AE000209791F0912F80E0845F9B4FBF0144E0CD
:103AF00050E0C8D2812FBE0181DF86EE96E0612FB3
:103B000044E061D481E001C080E0DF91CF911F915A
:103B100008950F93282FAB0186EE96E0622F21E0E7
:103B200030E001E00BD481E090E00F9108950F9315
:103B30001F93CF93DF93182F9B01EA014115510585
:103B400019F420E030E00DC086EE96E0612FA90167
:103B50009E0100E0F3D386EE96E0612F40E433D47B
:103B60009E01C901DF91CF911F910F910895CF92CE
:103B7000DF92EF92FF921F93CF93DF93182F6B0189
:103B8000EA0188E04130580710F0C0E0D8E086EE46
:103B900096E0612F59D37C01812F63E070E011DF43
:103BA000873129F08C3119F0C0E0D0E003C0EC1669
:103BB000FD0668F386EE96E0612FA6019E01A2D273
:103BC00086EE96E0612F40E2FED30BC0812F63E0CA
:103BD00070E0F7DE882329F4812F02DFC0E0D0E017
:103BE0000BC0812F62E070E0ECDE84FFEFCF812F0D
:103BF00062E070E040E1ECDECE01DF91CF911F91F9
:103C0000FF90EF90DF90CF90089510927A06449A3B
:103C1000459AE9EBF0E080818E7F808380818D7F03
:103C2000808388E48093B80085E48093BC00089585
:103C3000982F413210F040E030C080917A068823FE
:103C4000E1F781E080937A068FEF8093E50610928A
:103C5000A00641504093A1064F5F990F9160909349
:103C60007B0685EE8093BC0080917A068130E1F37B
:103C70008091A006841710F44091A00620E030E067
:103C80000AC0FB01E20FF31FD901A058B94F8C9174
:103C900080832F5F3F4F2417A0F3842F08951F9335
:103CA000582F122F413210F081E03AC080917A06ED
:103CB0008823E1F782E080937A068FEF8093E50610
:103CC0001092A0064093A106A0E8B6E0FB0102C056
:103CD00081918D938E2F861B8417D0F3852F90E0D2
:103CE000880F991F80937B0685EE8093BC0011237B
:103CF00021F080917A068230E1F38091E5068F3FD2
:103D000011F480E00DC08091E506803211F482E06C
:103D100007C08091E506803311F084E001C083E0A4
:103D20001F910895482F613210F081E0089580912D
:103D30007A06843011F082E008956093C306A2EA07
:103D4000B6E0842F9C01F90102C081918D938E2FE2
:103D5000841B8617D0F380E008951F920F920FB650
:103D60000F9211242F933F934F935F936F937F9301
:103D70008F939F93AF93BF93EF93FF938091B9007D
:103D800090E0887F90708036910509F4DCC0813620
:103D90009105CCF58832910509F47BC089329105F3
:103DA000B4F48031910509F46FC0813191053CF480
:103DB000009709F431C1089709F039C165C088310D
:103DC000910509F466C0809709F031C17DC0803447
:103DD000910509F49FC08134910544F48033910525
:103DE00009F47DC0C89709F022C184C080359105CF
:103DF00009F484C08835910509F491C0883491058F
:103E000009F015C198C08839910509F4FDC08939B8
:103E10009105ECF48837910509F495C0893791052F
:103E20004CF48836910509F48EC08037910509F06D
:103E3000FEC089C08838910509F4E6C08039910533
:103E400009F487C08038910509F0F1C082C0803B39
:103E5000910509F4B0C0813B91054CF4803A91057D
:103E600009F489C0883A910509F0E1C0A4C0803CFA
:103E7000910509F4CDC0883C910509F4C9C0883B7F
:103E8000910509F0D4C0ACC080917B068093BB0043
:103E9000B9C09091A0068091A106981768F49091FE
:103EA000A006E92FF0E0E058F94F80818093BB0035
:103EB0009F5F9093A006A6C085ED8093BC00809183
:103EC000BC0084FDFCCFB1C080E28093E50685EDA7
:103ED0008093BC008091BC0084FDFCCFA6C080E331
:103EE0008093E50685ED8093BC008091BC0084FD45
:103EF000FCCF9BC088E38093E5068AC08091A00632
:103F00009091BB00E82FF0E0E058F94F90838F5F6D
:103F10008093A0069091A0068091A10671C0809127
:103F2000A0069091BB00E82FF0E0E058F94F908395
:103F30008F5F8093A00685ED8093BC008091BC00CC
:103F400084FDFCCF72C083E080937A061092E40671
:103F500059C08091E406803208F056C08091E40692
:103F60009091BB00E82FF0E0EC53F94F90838F5F06
:103F70008093E40647C08091E406803230F4E091FB
:103F8000E406F0E0EC53F94F108285ED8093BC001D
:103F90008091BC0084FDFCCF10927A066091E4060B
:103FA000E0917E06F0917F0684EC96E070E0099542
:103FB0001092E4062DC084E080937A061092C20627
:103FC0001092C306E0917C06F0917D0609958091E0
:103FD000C306882329F481E08093C3061092A206C9
:103FE0009091C206E92FF0E0EE55F94F8081809361
:103FF000BB009F5F9093C2069091C2068091C3065A
:10400000981710F485EC01C085E88093BC000FC0C0
:1040100085EC8093BC0009C01092E50685ED809385
:10402000BC008091BC0084FDFCCF10927A06FF9109
:10403000EF91BF91AF919F918F917F916F915F9120
:104040004F913F912F910F900FBE0F901F90189599
:10405000282F2A9880EF8EBD0DB407FEFDCF8EB5B8
:104060009EBD0DB407FEFDCF8EB52EBD0DB407FE6F
:10407000FDCF8EB56EBD0DB407FEFDCF8EB52A9A6D
:1040800081E00895DC0120E030E090EF1DC02A9827
:104090009EBD0DB407FEFDCF8EB5BEBD0DB407FEAF
:1040A000FDCF8EB5AEBD0DB407FEFDCF8EB5FB01C5
:1040B000E20FF31F80818EBD0DB407FEFDCF119678
:1040C0008EB52A9A2F5F3F4F2417350700F3CA0198
:1040D0000895282F2A988FE08EBD0DB407FEFDCFDE
:1040E0008EB59EBD0DB407FEFDCF8EB52EBD0DB4B1
:1040F00007FEFDCF8EB51EBC0DB407FEFDCF8EB5FD
:104100002A9A08958F929F92BF92CF92DF92EF9258
:10411000FF920F931F93CF93DF93EC01B62E6A01AA
:104120007901862F64E270E04CDC182F8B2D65E25C
:1041300070E047DC312F20E04901880E911CA4017A
:1041400057708B2D90E0880F991FC80FD91F2881B9
:104150003981240F351FCA018E0D9F1D8150984053
:1041600088F000E018E0041B150BC901B601A80196
:1041700089DFA701401B510B888199810C0D1D1D02
:10418000B80103C0C901B601A7017CDFE80CF91C26
:104190000B2D10E00C5F1F4F102F0027C8018496D5
:1041A0006F2D56DFC80185966E2D52DFDF91CF91BE
:1041B0001F910F91FF90EF90DF90CF90BF909F9055
:1041C0008F900895FF920F931F93F82E66E270E090
:1041D000F8DB182F00E08F2D67E270E0F2DB080FAC
:1041E000111DC8011F910F91FF900895FF920F9329
:1041F0001F93CF93DF93F62EC0E0D0E08F2DE2DF48
:104200008C01009719F08F2DDDDFEC01C017D1076D
:10421000A9F7CE01DF91CF911F910F91FF900895E3
:10422000FF920F931F93F82E60E270E0CADB182F05
:1042300000E08F2D61E270E0C4DB080F111DC801A2
:104240001F910F91FF900895FF920F931F93CF93AB
:10425000DF93F62EC0E0D0E08F2DE2DF8C010097D7
:1042600019F08F2DDDDFEC01C017D107A9F7CE01C2
:10427000DF91CF911F910F91FF900895DC0120E015
:1042800030E09FE01DC02A989EBD0DB407FEFDCF13
:104290008EB5BEBD0DB407FEFDCF8EB5AEBD0DB45F
:1042A00007FEFDCF8EB51EBC0DB407FEFDCF1196E7
:1042B0008EB5FB01E20FF31F80832A9A2F5F3F4FD9
:1042C0002417350700F3CA010895CF92DF92EF92C9
:1042D000FF920F931F93CF93DF936901780157707B
:1042E000C62FD0E02496CC0FDD1FC80FD91F288120
:1042F0003981240F351FC801840F951F81509840C4
:1043000080F000E018E0041B150BC901B601A801FC
:10431000B5DFE01AF10A888199810C0D1D1DB801E5
:1043200002C0C901B601A701A9DFDF91CF911F919A
:104330000F91FF90EF90DF90CF9008958F929F9212
:10434000AF92BF92CF92DF92EF92FF920F931F93A3
:10435000CF93DF937C01A62E6A014901B02E862FF0
:1043600068E270E02EDB182F8A2D69E270E029DB0D
:10437000312F20E0E901C80FD11DC7016A2DAE0120
:1043800096018401A2DFBB2089F47E01E80CF91CB0
:104390000A2D10E00C5F1F4F102F0027C8018896D0
:1043A0006F2D56DEC80189966E2D52DEDF91CF91BA
:1043B0001F910F91FF90EF90DF90CF90BF90AF9043
:1043C0009F908F9008951F93162F962F80E08F5FF8
:1043D0009B4F642F3DDE812F61E070E0F2DA88238D
:1043E000D1F71F9108950F931F93182F092F6CE297
:1043F00071E080E090E02FD40E940219229A80E0C0
:1044000090E060E825DE8BE190E065E521DE8AE161
:1044100090E065E51DDE212F302FC901FC0180E011
:1044200090E4918380838050904E91878087805064
:104430009841329620E68030920799F71F910F91AC
:1044400008951F920F920FB60F9211242F933F934E
:104450004F938F939F93EF93FF934091C600E0910A
:104460007607F091770731969F012F77307031975B
:1044700080917807909179072817390739F0EA5029
:10448000F94F40833093770720937607FF91EF91A0
:104490009F918F914F913F912F910F900FBE0F9051
:1044A0001F901895CF93DF93EC019A01AB01E8853B
:1044B000F985203081EE380780E0480780E0580712
:1044C00009F444C081E090E00A8802C0880F991F77
:1044D0000A94E2F7808360E079E08DE390E0DDD438
:1044E000215030404040504056954795379527958C
:1044F000EC81FD813083EE81FF812083EA85FB859D
:10450000208141E050E0CA010E8402C0880F991F4B
:104510000A94E2F7282B2083EA85FB852081CA01D3
:104520000F8402C0880F991F0A94E2F7282B20837A
:10453000EA85FB858081088802C0440F551F0A94D4
:10454000E2F7842B8083DF91CF910895108220E1E0
:1045500030E0CECFDC011296ED91FC911397E0583C
:10456000FF4F2191319180819181281B390B2F7749
:104570003070C9010895DC011296ED91FC911397FA
:10458000EE57FF4F2081318192918291E058F040A7
:104590008217930719F42FEF3FEF05C0E20FF31FC7
:1045A0008081282F30E0C9010895DC011296ED9139
:1045B000FC911397DF01AE57BF4F2D913C9111979E
:1045C000E058FF4F80819181E058F04082179307B7
:1045D00019F42FEF3FEF0BC0E20FF31F80812F5F25
:1045E0003F4F2F7730702D933C93282F30E0C90137
:1045F0000895DC011296ED91FC911397EE57FF4F51
:1046000080819181929382930895FC01A085B18568
:1046100021898C9190E0022E02C0959587950A948D
:10462000E2F780FFF6CF0484F585E02D60830895DE
:1046300088E991E090937B0780937A0786EF96E074
:1046400090937D0780937C0785EC90E090937F07A3
:1046500080937E0784EC90E090938107809380079D
:1046600080EC90E0909383078093820781EC90E048
:10467000909385078093840786EC90E0909387075A
:104680008093860784E08093880783E0809389077E
:1046900087E080938A0785E080938B0781E0809391
:1046A0008C0708950F931F93CF93DF938C01EB0139
:1046B00009C02196D801ED91FC910190F081E02D87
:1046C000C801099568816623A1F7DF91CF911F91F9
:1046D0000F910895EF92FF920F931F93CF93DF9363
:1046E0008C017B01EA010CC0D7016D917D01D801DD
:1046F000ED91FC910190F081E02DC8010995219781
:10470000209791F7DF91CF911F910F91FF90EF903C
:104710000895DC01ED91FC910280F381E02D099573
:1047200008952F923F924F925F926F927F928F9255
:104730009F92AF92BF92CF92DF92EF92FF920F9330
:104740001F93DF93CF93CDB7DEB7A0970FB6F89442
:10475000DEBF0FBECDBF1C016A017B0141155105B3
:104760006105710541F440E350E060E070E020E055
:1047700030E089D051C0882499245401422E552418
:104780006624772401E010E00C0F1D1F080D191D91
:10479000C701B601A301920180D3F8016083089498
:1047A000811C911CA11CB11CC701B601A30192017F
:1047B00074D3C901DA016C017D01C114D104E10493
:1047C000F10401F781E0E82EF12CEC0EFD1EE80C5F
:1047D000F91C3E010894611C711CD501C4010197AC
:1047E000A109B1096C01C818D90813C0F601EE0D72
:1047F000FF1D40814A3010F4405D01C0495C50E02B
:1048000060E070E0C10120E030E03DD00894E108B4
:10481000F1086E147F0451F7A0960FB6F894DEBF2E
:104820000FBECDBFCF91DF911F910F91FF90EF9001
:10483000DF90CF90BF90AF909F908F907F906F90C0
:104840005F904F903F902F900895DC012115310526
:1048500041F4ED91FC910190F081E02D642F0995D8
:1048600008955FCFEF92FF920F931F939A01E62E68
:10487000FF2400E010E0B801A701E7DF1F910F91CE
:10488000FF90EF900895EF92FF920F931F93CF93B5
:10489000DF93EC017A018B012115310541F4E881A8
:1048A000F9810190F081E02D642F099519C02A301B
:1048B0003105A9F477FF0FC04DE250E060E070E0F1
:1048C00020E030E0E0DF10950095F094E094E11CEA
:1048D000F11C011D111DCE01B801A7012AE021DF45
:1048E000DF91CF911F910F91FF90EF900895EF927C
:1048F000FF920F931F939A01E62EFF2400E010E031
:10490000B801A701C0DF1F910F91FF90EF900895AC
:104910000F931F938C014DE050E060E070E020E0C9
:1049200030E0B1DFC8014AE050E060E070E020E034
:1049300030E0A9DF1F910F9108950F931F938C0111
:10494000E8DEC801E5DF1F910F910895CF92DF9255
:10495000EF92FF920F931F938C019A01C62EDD24D4
:10496000EE24FF24B701A6018EDFC801D1DF1F911D
:104970000F91FF90EF90DF90CF900895813041F03C
:10498000813018F08230D1F409C010926E00089581
:1049900080916F008D7F80936F00089580917000EB
:1049A0008D7F8093700081E08093B0008091B10092
:1049B000887F84608093B1001092B30008951F93A4
:1049C000182F80913601811711F09FEF06C0EFED8F
:1049D000F2E094918FEF80933601892FCFDF812F02
:1049E00060E0F5D11F9108951F920F920FB60F92BC
:1049F00011242F933F934F935F936F937F938F93E4
:104A00009F93AF93BF93EF93FF9380918D07909106
:104A10008E07A0918F07B09190070097A105B1056F
:104A200051F1E0919107F091920780819091930765
:104A30008927808380918D0790918E07A0918F07A1
:104A4000B0919007181619061A061B06BCF480913F
:104A50008D0790918E07A0918F07B09190070197D5
:104A6000A109B10980938D0790938E07A0938F07BA
:104A7000B093900703C080913601A1DFFF91EF91C1
:104A8000BF91AF919F918F917F916F915F914F9166
:104A90003F912F910F900FBE0F901F9018951F926E
:104AA0000F920FB60F9211242F933F934F935F9362
:104AB0006F937F938F939F93AF93BF93EF93FF93E6
:104AC0008091940790919507892B29F0E0919407A4
:104AD000F09195070995FF91EF91BF91AF919F914B
:104AE0008F917F916F915F914F913F912F910F9097
:104AF0000FBE0F901F9018951F920F920FB60F9236
:104B000011242F933F934F935F936F937F938F93D2
:104B10009F93AF93BF93EF93FF93809196079091EC
:104B20009707892B29F0E0919607F091970709954F
:104B3000FF91EF91BF91AF919F918F917F916F9175
:104B40005F914F913F912F910F900FBE0F901F904B
:104B50001895AFD00E941C130E94D813FDCF1F924E
:104B60000F920FB60F9211242F933F938F939F9321
:104B7000AF93BF9380919C0790919D07A0919E0752
:104B8000B0919F073091A0070196A11DB11D232F61
:104B90002D5F2D3720F02D570196A11DB11D2093BB
:104BA000A00780939C0790939D07A0939E07B093C6
:104BB0009F078091980790919907A0919A07B091CB
:104BC0009B070196A11DB11D8093980790939907AB
:104BD000A0939A07B0939B07BF91AF919F918F913C
:104BE0003F912F910F900FBE0F901F9018958FB788
:104BF000F89420919C0730919D0740919E07509119
:104C00009F078FBFB901CA0108959FB7F8942091FB
:104C100098073091990740919A0750919B0786B564
:104C2000A89B06C08F3F21F02F5F3F4F4F4F5F4F34
:104C30009FBF542F432F322F2227280F311D411D94
:104C4000511D82E0220F331F441F551F8A95D1F753
:104C5000B901CA010895EF92FF920F931F93CF936A
:104C6000DF937B018C01D1DFEB010DC0CEDF6C1B2C
:104C70007D0B685E7340D0F30894E108F1080109E8
:104C80001109C851DC4FE114F1040105110571F758
:104C9000DF91CF911F910F91FF90EF9008950197B1
:104CA00039F0880F991F880F991F02970197F1F724
:104CB0000895789484B5826084BD84B5816084BD94
:104CC00085B5826085BD85B5816085BDEEE6F0E085
:104CD000808181608083E1E8F0E0108280818260E1
:104CE0008083808181608083E0E8F0E08081816062
:104CF0008083E1EBF0E0808184608083E0EBF0E092
:104D0000808181608083EAE7F0E080818460808335
:104D100080818260808380818160808380818068DF
:104D200080831092C1000895482F50E0CA018E5E22
:104D30009C4FFC01249142505D4FFA0184918823DD
:104D4000C1F0E82FF0E0EE0FFF1FE052FD4FA591FC
:104D5000B491662341F49FB7F8948C9120958223F7
:104D60008C939FBF08959FB7F8948C91822B8C935E
:104D70009FBF0895833071F0843028F48130A1F012
:104D8000823021F514C08630B1F08730D1F0843004
:104D9000E9F404C0809180008F7703C08091800087
:104DA0008F7D80938000089584B58F7702C084B58D
:104DB0008F7D84BD08958091B0008F778093B0007F
:104DC00008958091B0008F7D8093B0000895FF9288
:104DD0000F931F93F62E482F50E0CA018A5D9C4F17
:104DE000FC012491CA018E5E9C4FFC01149142503B
:104DF0005D4FFA0104910023D1F0222311F0822F9C
:104E0000B9DFE02FF0E0EE0FFF1FE651FD4FA59157
:104E1000B491FF2031F49FB7F8948C9110958123C1
:104E200004C09FB7F8948C91812B8C939FBF1F91E6
:104E30000F91FF900895629FD001739FF001829FB0
:104E4000E00DF11D649FE00DF11D929FF00D839F19
:104E5000F00D749FF00D659FF00D9927729FB00DB6
:104E6000E11DF91F639FB00DE11DF91FBD01CF01C9
:104E70001124089597FB092E07260AD077FD04D048
:104E800049D006D000201AF4709561957F4F08959F
:104E9000F6F7909581959F4F0895A1E21A2EAA1BCF
:104EA000BB1BFD010DC0AA1FBB1FEE1FFF1FA217DA
:104EB000B307E407F50720F0A21BB30BE40BF50BD7
:104EC000661F771F881F991F1A9469F76095709560
:104ED000809590959B01AC01BD01CF01089597FB92
:104EE000092E05260ED057FD04D0D7DF0AD0001CAE
:104EF00038F450954095309521953F4F4F4F5F4F77
:104F00000895F6F790958095709561957F4F8F4F36
:104F10009F4F0895AA1BBB1B51E107C0AA1FBB1FCF
:104F2000A617B70710F0A61BB70B881F991F5A9535
:104F3000A9F780959095BC01CD010895EE0FFF1F54
:104F40000590F491E02D0994FB01DC0102C005906D
:104F50000D9241505040D8F70895FB01DC018D912E
:104F6000059080190110D9F3990B0895FB01DC011C
:104F700005900D920020E1F70895FC0105900020B6
:104F8000E9F7809590958E0F9F1F0895FB01DC0136
:104F90004150504030F08D910590801919F4002057
:104FA000B9F7881B990B0895FB01DC0104C08D91B2
:104FB0000190801921F441505040C8F7881B990B8B
:104FC0000895FB01DC0102C001900D924150504058
:104FD000D8F70895FC0101900020E9F7809590959D
:0A4FE0008E0F9F1F0895F894FFCF75
:104FEA005765617468657243656E7472616C0043DB
:104FFA003D202020202020202020202020202000AA
:10500A00202EDEADBEEFFEEDC0A80728C0A807011E
:10501A00FFFFFF000004FF000000008C0DAF0C8AA8
:10502A000CB60B0B0C00000000D70D4D0B4E0B4FAE
:10503A000B500B303132333435363738394142432D
:10504A004445460000000000D314E814CC14BE14F2
:10505A0097147214EC1300000000431652236A23BB
:10506A0000004000140054006400D4005E013200C5
:10507A008900130100000000052352236A23AA2293
:06508A00D522BB22F92231
:00000001FF
